:100000000AC008C007C006C005C004C003C002C0C3
:1000100080C000C01895112420E0A0E6B0E001C027
:100020001D92A136B207E1F77894BB98BC9AB89AB2
:10003000C5E0C09A88E290E062D0C09888E290E083
:100040005ED0C150B1F7F894A89584B7877F84BF7C
:1000500080E181BD81E281BD81B5806481BD7894FC
:10006000D7ECC49A87B1836087B9D6B93699FECFE9
:1000700084B195B116B8883C9105E4F48091600094
:100080008A30C0F0B89AC0E08C2F23D084E090E092
:1000900036D0CF5FCF3FC1F78CED95E030D08C2FBD
:1000A00018D084E090E02BD0C150C9F7C098B89820
:1000B00010926000C49896B1379885B7806185BF6B
:1000C00085B7806285BF889585B78F7D85BF96B9D6
:1000D000C8CF93E093BFB89A811105C08FB58F77D1
:1000E0008FBDC09808958F3F29F48FB58F778FBD4E
:1000F000C09A08959FB593689FBD86BF089506C0B6
:10010000EFE5F9E03197F1F700C000000197C0F783
:1001100008951F920F920FB60F9211248F93809122
:1001200060008F5F809360008F910F900FBE0F90E3
:040130001F9018956F
:00000001FF
